{
  "_format": "hh-sol-artifact-1",
  "contractName": "WavePortal",
  "sourceName": "contracts/WavePortal.sol",
  "abi": [
    {
      "inputs": [],
      "stateMutability": "payable",
      "type": "constructor"
    },
    {
      "anonymous": false,
      "inputs": [
        {
          "indexed": true,
          "internalType": "address",
          "name": "from",
          "type": "address"
        },
        {
          "indexed": false,
          "internalType": "uint256",
          "name": "timestamp",
          "type": "uint256"
        },
        {
          "indexed": false,
          "internalType": "string",
          "name": "message",
          "type": "string"
        }
      ],
      "name": "NewWave",
      "type": "event"
    },
    {
      "inputs": [],
      "name": "getAllWaves",
      "outputs": [
        {
          "components": [
            {
              "internalType": "address",
              "name": "waver",
              "type": "address"
            },
            {
              "internalType": "string",
              "name": "message",
              "type": "string"
            },
            {
              "internalType": "uint256",
              "name": "timestamp",
              "type": "uint256"
            }
          ],
          "internalType": "struct WavePortal.Wave[]",
          "name": "",
          "type": "tuple[]"
        }
      ],
      "stateMutability": "view",
      "type": "function"
    },
    {
      "inputs": [],
      "name": "getTotalWavers",
      "outputs": [
        {
          "internalType": "address[]",
          "name": "",
          "type": "address[]"
        }
      ],
      "stateMutability": "view",
      "type": "function"
    },
    {
      "inputs": [],
      "name": "getTotalWaves",
      "outputs": [
        {
          "internalType": "uint256",
          "name": "",
          "type": "uint256"
        }
      ],
      "stateMutability": "view",
      "type": "function"
    },
    {
      "inputs": [
        {
          "internalType": "string",
          "name": "_message",
          "type": "string"
        }
      ],
      "name": "wave",
      "outputs": [],
      "stateMutability": "nonpayable",
      "type": "function"
    }
  ],
  "bytecode": "0x60806040526200004f6040518060400160405280601e81526020017f49276d206120736d61727420636f6e74726163742e20504f474348414d500000815250620000c560201b620007081760201c565b606444426200005f9190620002fd565b6200006b91906200039a565b600281905550620000bf6040518060400160405280601481526020017f52616e646f6d20232067656e6572617465643a200000000000000000000000008152506002546200016860201b620007a11760201c565b62000441565b6200016581604051602401620000dc919062000289565b6040516020818303038152906040527f41304fac000000000000000000000000000000000000000000000000000000007bffffffffffffffffffffffffffffffffffffffffffffffffffffffff19166020820180517bffffffffffffffffffffffffffffffffffffffffffffffffffffffff83818316178352505050506200020e60201b60201c565b50565b6200020a828260405160240162000181929190620002ad565b6040516020818303038152906040527f9710a9d0000000000000000000000000000000000000000000000000000000007bffffffffffffffffffffffffffffffffffffffffffffffffffffffff19166020820180517bffffffffffffffffffffffffffffffffffffffffffffffffffffffff83818316178352505050506200020e60201b60201c565b5050565b60008151905060006a636f6e736f6c652e6c6f679050602083016000808483855afa5050505050565b60006200024482620002e1565b620002508185620002ec565b93506200026281856020860162000364565b6200026d8162000430565b840191505092915050565b62000283816200035a565b82525050565b60006020820190508181036000830152620002a5818462000237565b905092915050565b60006040820190508181036000830152620002c9818562000237565b9050620002da602083018462000278565b9392505050565b600081519050919050565b600082825260208201905092915050565b60006200030a826200035a565b915062000317836200035a565b9250827fffffffffffffffffffffffffffffffffffffffffffffffffffffffffffffffff038211156200034f576200034e620003d2565b5b828201905092915050565b6000819050919050565b60005b838110156200038457808201518184015260208101905062000367565b8381111562000394576000848401525b50505050565b6000620003a7826200035a565b9150620003b4836200035a565b925082620003c757620003c662000401565b5b828206905092915050565b7f4e487b7100000000000000000000000000000000000000000000000000000000600052601160045260246000fd5b7f4e487b7100000000000000000000000000000000000000000000000000000000600052601260045260246000fd5b6000601f19601f8301169050919050565b61140780620004516000396000f3fe608060405234801561001057600080fd5b506004361061004c5760003560e01c8063449d46c0146100515780639a2cdc081461006d578063a126adab1461008b578063bd43a908146100a9575b600080fd5b61006b60048036038101906100669190610b45565b6100c7565b005b610075610451565b6040516100829190610f67565b60405180910390f35b61009361045a565b6040516100a09190610e1c565b60405180910390f35b6100b16105b7565b6040516100be9190610e3e565b60405180910390f35b60008081546100d5906111e9565b919050819055506001339080600181540180825580915050600190039060005260206000200160009091909190916101000a81548173ffffffffffffffffffffffffffffffffffffffff021916908373ffffffffffffffffffffffffffffffffffffffff16021790555061017f6040518060400160405280601681526020017f257320776176656420772f206d65737361676520267300000000000000000000815250338361083d565b600360405180606001604052803373ffffffffffffffffffffffffffffffffffffffff16815260200183815260200142815250908060018154018082558091505060019003906000526020600020906003020160009091909190915060008201518160000160006101000a81548173ffffffffffffffffffffffffffffffffffffffff021916908373ffffffffffffffffffffffffffffffffffffffff160217905550602082015181600101908051906020019061023e929190610a3a565b506040820151816002015550503373ffffffffffffffffffffffffffffffffffffffff167f5f7e16dc676677766a70e9c5628aa6c54ddb8b6e5188e2ae1e1f17f1ffbea7164283604051610293929190610f82565b60405180910390a2606460025442446102ac91906110b2565b6102b691906110b2565b6102c09190611232565b6002819055506103076040518060400160405280601681526020017f52616e646f6d20232067656e6572617465643a202564000000000000000000008152506002546107a1565b60326002541161044e576103506040518060400160405280600781526020017f257320776f6e2100000000000000000000000000000000000000000000000000815250336108dc565b600066038d7ea4c6800090504781111561039f576040517f08c379a000000000000000000000000000000000000000000000000000000000815260040161039690610f27565b60405180910390fd5b60003373ffffffffffffffffffffffffffffffffffffffff16826040516103c590610dec565b60006040518083038185875af1925050503d8060008114610402576040519150601f19603f3d011682016040523d82523d6000602084013e610407565b606091505b505090508061044b576040517f08c379a000000000000000000000000000000000000000000000000000000000815260040161044290610f47565b60405180910390fd5b50505b50565b60008054905090565b606061049a6040518060400160405280600b81526020017f416c6c207761766572733a000000000000000000000000000000000000000000815250610708565b60005b60018054905081101561052a57610517600182815481106104e7577f4e487b7100000000000000000000000000000000000000000000000000000000600052603260045260246000fd5b9060005260206000200160009054906101000a900473ffffffffffffffffffffffffffffffffffffffff16610978565b8080610522906111e9565b91505061049d565b5060018054806020026020016040519081016040528092919081815260200182805480156105ad57602002820191906000526020600020905b8160009054906101000a900473ffffffffffffffffffffffffffffffffffffffff1673ffffffffffffffffffffffffffffffffffffffff1681526020019060010190808311610563575b5050505050905090565b60606003805480602002602001604051908101604052809291908181526020016000905b828210156106ff57838290600052602060002090600302016040518060600160405290816000820160009054906101000a900473ffffffffffffffffffffffffffffffffffffffff1673ffffffffffffffffffffffffffffffffffffffff1673ffffffffffffffffffffffffffffffffffffffff16815260200160018201805461066490611186565b80601f016020809104026020016040519081016040528092919081815260200182805461069090611186565b80156106dd5780601f106106b2576101008083540402835291602001916106dd565b820191906000526020600020905b8154815290600101906020018083116106c057829003601f168201915b50505050508152602001600282015481525050815260200190600101906105db565b50505050905090565b61079e8160405160240161071c9190610e60565b6040516020818303038152906040527f41304fac000000000000000000000000000000000000000000000000000000007bffffffffffffffffffffffffffffffffffffffffffffffffffffffff19166020820180517bffffffffffffffffffffffffffffffffffffffffffffffffffffffff8381831617835250505050610a11565b50565b61083982826040516024016107b7929190610ef7565b6040516020818303038152906040527f9710a9d0000000000000000000000000000000000000000000000000000000007bffffffffffffffffffffffffffffffffffffffffffffffffffffffff19166020820180517bffffffffffffffffffffffffffffffffffffffffffffffffffffffff8381831617835250505050610a11565b5050565b6108d783838360405160240161085593929190610eb2565b6040516020818303038152906040527fe0e9ad4f000000000000000000000000000000000000000000000000000000007bffffffffffffffffffffffffffffffffffffffffffffffffffffffff19166020820180517bffffffffffffffffffffffffffffffffffffffffffffffffffffffff8381831617835250505050610a11565b505050565b61097482826040516024016108f2929190610e82565b6040516020818303038152906040527f319af333000000000000000000000000000000000000000000000000000000007bffffffffffffffffffffffffffffffffffffffffffffffffffffffff19166020820180517bffffffffffffffffffffffffffffffffffffffffffffffffffffffff8381831617835250505050610a11565b5050565b610a0e8160405160240161098c9190610e01565b6040516020818303038152906040527f2c2ecbc2000000000000000000000000000000000000000000000000000000007bffffffffffffffffffffffffffffffffffffffffffffffffffffffff19166020820180517bffffffffffffffffffffffffffffffffffffffffffffffffffffffff8381831617835250505050610a11565b50565b60008151905060006a636f6e736f6c652e6c6f679050602083016000808483855afa5050505050565b828054610a4690611186565b90600052602060002090601f016020900481019282610a685760008555610aaf565b82601f10610a8157805160ff1916838001178555610aaf565b82800160010185558215610aaf579182015b82811115610aae578251825591602001919060010190610a93565b5b509050610abc9190610ac0565b5090565b5b80821115610ad9576000816000905550600101610ac1565b5090565b6000610af0610aeb84610fd7565b610fb2565b905082815260208101848484011115610b0857600080fd5b610b13848285611144565b509392505050565b600082601f830112610b2c57600080fd5b8135610b3c848260208601610add565b91505092915050565b600060208284031215610b5757600080fd5b600082013567ffffffffffffffff811115610b7157600080fd5b610b7d84828501610b1b565b91505092915050565b6000610b928383610bb2565b60208301905092915050565b6000610baa8383610d7e565b905092915050565b610bbb81611108565b82525050565b610bca81611108565b82525050565b6000610bdb82611028565b610be58185611063565b9350610bf083611008565b8060005b83811015610c21578151610c088882610b86565b9750610c1383611049565b925050600181019050610bf4565b5085935050505092915050565b6000610c3982611033565b610c438185611074565b935083602082028501610c5585611018565b8060005b85811015610c915784840389528151610c728582610b9e565b9450610c7d83611056565b925060208a01995050600181019050610c59565b50829750879550505050505092915050565b6000610cae8261103e565b610cb88185611090565b9350610cc8818560208601611153565b610cd18161131f565b840191505092915050565b6000610ce78261103e565b610cf181856110a1565b9350610d01818560208601611153565b610d0a8161131f565b840191505092915050565b6000610d226034836110a1565b9150610d2d82611330565b604082019050919050565b6000610d456027836110a1565b9150610d508261137f565b604082019050919050565b6000610d68600083611085565b9150610d73826113ce565b600082019050919050565b6000606083016000830151610d966000860182610bb2565b5060208301518482036020860152610dae8282610ca3565b9150506040830151610dc36040860182610dce565b508091505092915050565b610dd78161113a565b82525050565b610de68161113a565b82525050565b6000610df782610d5b565b9150819050919050565b6000602082019050610e166000830184610bc1565b92915050565b60006020820190508181036000830152610e368184610bd0565b905092915050565b60006020820190508181036000830152610e588184610c2e565b905092915050565b60006020820190508181036000830152610e7a8184610cdc565b905092915050565b60006040820190508181036000830152610e9c8185610cdc565b9050610eab6020830184610bc1565b9392505050565b60006060820190508181036000830152610ecc8186610cdc565b9050610edb6020830185610bc1565b8181036040830152610eed8184610cdc565b9050949350505050565b60006040820190508181036000830152610f118185610cdc565b9050610f206020830184610ddd565b9392505050565b60006020820190508181036000830152610f4081610d15565b9050919050565b60006020820190508181036000830152610f6081610d38565b9050919050565b6000602082019050610f7c6000830184610ddd565b92915050565b6000604082019050610f976000830185610ddd565b8181036020830152610fa98184610cdc565b90509392505050565b6000610fbc610fcd565b9050610fc882826111b8565b919050565b6000604051905090565b600067ffffffffffffffff821115610ff257610ff16112f0565b5b610ffb8261131f565b9050602081019050919050565b6000819050602082019050919050565b6000819050602082019050919050565b600081519050919050565b600081519050919050565b600081519050919050565b6000602082019050919050565b6000602082019050919050565b600082825260208201905092915050565b600082825260208201905092915050565b600081905092915050565b600082825260208201905092915050565b600082825260208201905092915050565b60006110bd8261113a565b91506110c88361113a565b9250827fffffffffffffffffffffffffffffffffffffffffffffffffffffffffffffffff038211156110fd576110fc611263565b5b828201905092915050565b60006111138261111a565b9050919050565b600073ffffffffffffffffffffffffffffffffffffffff82169050919050565b6000819050919050565b82818337600083830152505050565b60005b83811015611171578082015181840152602081019050611156565b83811115611180576000848401525b50505050565b6000600282049050600182168061119e57607f821691505b602082108114156111b2576111b16112c1565b5b50919050565b6111c18261131f565b810181811067ffffffffffffffff821117156111e0576111df6112f0565b5b80604052505050565b60006111f48261113a565b91507fffffffffffffffffffffffffffffffffffffffffffffffffffffffffffffffff82141561122757611226611263565b5b600182019050919050565b600061123d8261113a565b91506112488361113a565b92508261125857611257611292565b5b828206905092915050565b7f4e487b7100000000000000000000000000000000000000000000000000000000600052601160045260246000fd5b7f4e487b7100000000000000000000000000000000000000000000000000000000600052601260045260246000fd5b7f4e487b7100000000000000000000000000000000000000000000000000000000600052602260045260246000fd5b7f4e487b7100000000000000000000000000000000000000000000000000000000600052604160045260246000fd5b6000601f19601f8301169050919050565b7f547279696e6720746f207769746864726177206d6f7265206d6f6e657920746860008201527f616e2074686520636f6e7472616374206861732e000000000000000000000000602082015250565b7f4661696c656420746f207769746864726177206d6f6e65792066726f6d20636f60008201527f6e74726163742e00000000000000000000000000000000000000000000000000602082015250565b5056fea2646970667358221220f2c928aee6e609f858c048f96765566ca79a34c4fbaa763e5ba42876120a842764736f6c63430008040033",
  "linkReferences": {},
  "deployedLinkReferences": {}
}