{
  "_format": "hh-sol-artifact-1",
  "contractName": "WavePortal",
  "sourceName": "contracts/WavePortal.sol",
  "abi": [
    {
      "inputs": [],
      "stateMutability": "payable",
      "type": "constructor"
    },
    {
      "anonymous": false,
      "inputs": [
        {
          "indexed": true,
          "internalType": "address",
          "name": "from",
          "type": "address"
        },
        {
          "indexed": false,
          "internalType": "uint256",
          "name": "timestamp",
          "type": "uint256"
        },
        {
          "indexed": false,
          "internalType": "string",
          "name": "message",
          "type": "string"
        }
      ],
      "name": "NewWave",
      "type": "event"
    },
    {
      "inputs": [],
      "name": "getAllWaves",
      "outputs": [
        {
          "components": [
            {
              "internalType": "address",
              "name": "waver",
              "type": "address"
            },
            {
              "internalType": "string",
              "name": "message",
              "type": "string"
            },
            {
              "internalType": "uint256",
              "name": "timestamp",
              "type": "uint256"
            }
          ],
          "internalType": "struct WavePortal.Wave[]",
          "name": "",
          "type": "tuple[]"
        }
      ],
      "stateMutability": "view",
      "type": "function"
    },
    {
      "inputs": [],
      "name": "getTotalWavers",
      "outputs": [
        {
          "internalType": "address[]",
          "name": "",
          "type": "address[]"
        }
      ],
      "stateMutability": "view",
      "type": "function"
    },
    {
      "inputs": [],
      "name": "getTotalWaves",
      "outputs": [
        {
          "internalType": "uint256",
          "name": "",
          "type": "uint256"
        }
      ],
      "stateMutability": "view",
      "type": "function"
    },
    {
      "inputs": [
        {
          "internalType": "address",
          "name": "",
          "type": "address"
        }
      ],
      "name": "lastWavedAt",
      "outputs": [
        {
          "internalType": "uint256",
          "name": "",
          "type": "uint256"
        }
      ],
      "stateMutability": "view",
      "type": "function"
    },
    {
      "inputs": [
        {
          "internalType": "string",
          "name": "_message",
          "type": "string"
        }
      ],
      "name": "wave",
      "outputs": [],
      "stateMutability": "nonpayable",
      "type": "function"
    }
  ],
  "bytecode": "0x60806040526200004f6040518060400160405280601e81526020017f49276d206120736d61727420636f6e74726163742e20504f474348414d500000815250620000c560201b6200082c1760201c565b606444426200005f9190620002fd565b6200006b91906200039a565b600281905550620000bf6040518060400160405280601481526020017f52616e646f6d20232067656e6572617465643a200000000000000000000000008152506002546200016860201b620008c51760201c565b62000441565b6200016581604051602401620000dc919062000289565b6040516020818303038152906040527f41304fac000000000000000000000000000000000000000000000000000000007bffffffffffffffffffffffffffffffffffffffffffffffffffffffff19166020820180517bffffffffffffffffffffffffffffffffffffffffffffffffffffffff83818316178352505050506200020e60201b60201c565b50565b6200020a828260405160240162000181929190620002ad565b6040516020818303038152906040527f9710a9d0000000000000000000000000000000000000000000000000000000007bffffffffffffffffffffffffffffffffffffffffffffffffffffffff19166020820180517bffffffffffffffffffffffffffffffffffffffffffffffffffffffff83818316178352505050506200020e60201b60201c565b5050565b60008151905060006a636f6e736f6c652e6c6f679050602083016000808483855afa5050505050565b60006200024482620002e1565b620002508185620002ec565b93506200026281856020860162000364565b6200026d8162000430565b840191505092915050565b62000283816200035a565b82525050565b60006020820190508181036000830152620002a5818462000237565b905092915050565b60006040820190508181036000830152620002c9818562000237565b9050620002da602083018462000278565b9392505050565b600081519050919050565b600082825260208201905092915050565b60006200030a826200035a565b915062000317836200035a565b9250827fffffffffffffffffffffffffffffffffffffffffffffffffffffffffffffffff038211156200034f576200034e620003d2565b5b828201905092915050565b6000819050919050565b60005b838110156200038457808201518184015260208101905062000367565b8381111562000394576000848401525b50505050565b6000620003a7826200035a565b9150620003b4836200035a565b925082620003c757620003c662000401565b5b828206905092915050565b7f4e487b7100000000000000000000000000000000000000000000000000000000600052601160045260246000fd5b7f4e487b7100000000000000000000000000000000000000000000000000000000600052601260045260246000fd5b6000601f19601f8301169050919050565b6115ec80620004516000396000f3fe608060405234801561001057600080fd5b50600436106100575760003560e01c8063449d46c01461005c5780639a2cdc0814610078578063a126adab14610096578063a42a4663146100b4578063bd43a908146100e4575b600080fd5b61007660048036038101906100719190610ca7565b610102565b005b61008061055d565b60405161008d919061110c565b60405180910390f35b61009e610566565b6040516100ab9190610fa1565b60405180910390f35b6100ce60048036038101906100c99190610c7e565b6106c3565b6040516100db919061110c565b60405180910390f35b6100ec6106db565b6040516100f99190610fc3565b60405180910390f35b42603c600460003373ffffffffffffffffffffffffffffffffffffffff1673ffffffffffffffffffffffffffffffffffffffff1681526020019081526020016000205461014f9190611257565b1061018f576040517f08c379a0000000000000000000000000000000000000000000000000000000008152600401610186906110ac565b60405180910390fd5b42600460003373ffffffffffffffffffffffffffffffffffffffff1673ffffffffffffffffffffffffffffffffffffffff1681526020019081526020016000208190555060008081546101e19061138e565b919050819055506001339080600181540180825580915050600190039060005260206000200160009091909190916101000a81548173ffffffffffffffffffffffffffffffffffffffff021916908373ffffffffffffffffffffffffffffffffffffffff16021790555061028b6040518060400160405280601681526020017f257320776176656420772f206d657373616765202673000000000000000000008152503383610961565b600360405180606001604052803373ffffffffffffffffffffffffffffffffffffffff16815260200183815260200142815250908060018154018082558091505060019003906000526020600020906003020160009091909190915060008201518160000160006101000a81548173ffffffffffffffffffffffffffffffffffffffff021916908373ffffffffffffffffffffffffffffffffffffffff160217905550602082015181600101908051906020019061034a929190610b5e565b506040820151816002015550503373ffffffffffffffffffffffffffffffffffffffff167f5f7e16dc676677766a70e9c5628aa6c54ddb8b6e5188e2ae1e1f17f1ffbea716428360405161039f929190611127565b60405180910390a2606460025442446103b89190611257565b6103c29190611257565b6103cc91906113d7565b6002819055506104136040518060400160405280601681526020017f52616e646f6d20232067656e6572617465643a202564000000000000000000008152506002546108c5565b60326002541161055a5761045c6040518060400160405280600781526020017f257320776f6e210000000000000000000000000000000000000000000000000081525033610a00565b600066038d7ea4c680009050478111156104ab576040517f08c379a00000000000000000000000000000000000000000000000000000000081526004016104a2906110cc565b60405180910390fd5b60003373ffffffffffffffffffffffffffffffffffffffff16826040516104d190610f71565b60006040518083038185875af1925050503d806000811461050e576040519150601f19603f3d011682016040523d82523d6000602084013e610513565b606091505b5050905080610557576040517f08c379a000000000000000000000000000000000000000000000000000000000815260040161054e906110ec565b60405180910390fd5b50505b50565b60008054905090565b60606105a66040518060400160405280600b81526020017f416c6c207761766572733a00000000000000000000000000000000000000000081525061082c565b60005b60018054905081101561063657610623600182815481106105f3577f4e487b7100000000000000000000000000000000000000000000000000000000600052603260045260246000fd5b9060005260206000200160009054906101000a900473ffffffffffffffffffffffffffffffffffffffff16610a9c565b808061062e9061138e565b9150506105a9565b5060018054806020026020016040519081016040528092919081815260200182805480156106b957602002820191906000526020600020905b8160009054906101000a900473ffffffffffffffffffffffffffffffffffffffff1673ffffffffffffffffffffffffffffffffffffffff168152602001906001019080831161066f575b5050505050905090565b60046020528060005260406000206000915090505481565b60606003805480602002602001604051908101604052809291908181526020016000905b8282101561082357838290600052602060002090600302016040518060600160405290816000820160009054906101000a900473ffffffffffffffffffffffffffffffffffffffff1673ffffffffffffffffffffffffffffffffffffffff1673ffffffffffffffffffffffffffffffffffffffff1681526020016001820180546107889061132b565b80601f01602080910402602001604051908101604052809291908181526020018280546107b49061132b565b80156108015780601f106107d657610100808354040283529160200191610801565b820191906000526020600020905b8154815290600101906020018083116107e457829003601f168201915b50505050508152602001600282015481525050815260200190600101906106ff565b50505050905090565b6108c2816040516024016108409190610fe5565b6040516020818303038152906040527f41304fac000000000000000000000000000000000000000000000000000000007bffffffffffffffffffffffffffffffffffffffffffffffffffffffff19166020820180517bffffffffffffffffffffffffffffffffffffffffffffffffffffffff8381831617835250505050610b35565b50565b61095d82826040516024016108db92919061107c565b6040516020818303038152906040527f9710a9d0000000000000000000000000000000000000000000000000000000007bffffffffffffffffffffffffffffffffffffffffffffffffffffffff19166020820180517bffffffffffffffffffffffffffffffffffffffffffffffffffffffff8381831617835250505050610b35565b5050565b6109fb83838360405160240161097993929190611037565b6040516020818303038152906040527fe0e9ad4f000000000000000000000000000000000000000000000000000000007bffffffffffffffffffffffffffffffffffffffffffffffffffffffff19166020820180517bffffffffffffffffffffffffffffffffffffffffffffffffffffffff8381831617835250505050610b35565b505050565b610a988282604051602401610a16929190611007565b6040516020818303038152906040527f319af333000000000000000000000000000000000000000000000000000000007bffffffffffffffffffffffffffffffffffffffffffffffffffffffff19166020820180517bffffffffffffffffffffffffffffffffffffffffffffffffffffffff8381831617835250505050610b35565b5050565b610b3281604051602401610ab09190610f86565b6040516020818303038152906040527f2c2ecbc2000000000000000000000000000000000000000000000000000000007bffffffffffffffffffffffffffffffffffffffffffffffffffffffff19166020820180517bffffffffffffffffffffffffffffffffffffffffffffffffffffffff8381831617835250505050610b35565b50565b60008151905060006a636f6e736f6c652e6c6f679050602083016000808483855afa5050505050565b828054610b6a9061132b565b90600052602060002090601f016020900481019282610b8c5760008555610bd3565b82601f10610ba557805160ff1916838001178555610bd3565b82800160010185558215610bd3579182015b82811115610bd2578251825591602001919060010190610bb7565b5b509050610be09190610be4565b5090565b5b80821115610bfd576000816000905550600101610be5565b5090565b6000610c14610c0f8461117c565b611157565b905082815260208101848484011115610c2c57600080fd5b610c378482856112e9565b509392505050565b600081359050610c4e8161159f565b92915050565b600082601f830112610c6557600080fd5b8135610c75848260208601610c01565b91505092915050565b600060208284031215610c9057600080fd5b6000610c9e84828501610c3f565b91505092915050565b600060208284031215610cb957600080fd5b600082013567ffffffffffffffff811115610cd357600080fd5b610cdf84828501610c54565b91505092915050565b6000610cf48383610d14565b60208301905092915050565b6000610d0c8383610f03565b905092915050565b610d1d816112ad565b82525050565b610d2c816112ad565b82525050565b6000610d3d826111cd565b610d478185611208565b9350610d52836111ad565b8060005b83811015610d83578151610d6a8882610ce8565b9750610d75836111ee565b925050600181019050610d56565b5085935050505092915050565b6000610d9b826111d8565b610da58185611219565b935083602082028501610db7856111bd565b8060005b85811015610df35784840389528151610dd48582610d00565b9450610ddf836111fb565b925060208a01995050600181019050610dbb565b50829750879550505050505092915050565b6000610e10826111e3565b610e1a8185611235565b9350610e2a8185602086016112f8565b610e33816114c4565b840191505092915050565b6000610e49826111e3565b610e538185611246565b9350610e638185602086016112f8565b610e6c816114c4565b840191505092915050565b6000610e84600d83611246565b9150610e8f826114d5565b602082019050919050565b6000610ea7603483611246565b9150610eb2826114fe565b604082019050919050565b6000610eca602783611246565b9150610ed58261154d565b604082019050919050565b6000610eed60008361122a565b9150610ef88261159c565b600082019050919050565b6000606083016000830151610f1b6000860182610d14565b5060208301518482036020860152610f338282610e05565b9150506040830151610f486040860182610f53565b508091505092915050565b610f5c816112df565b82525050565b610f6b816112df565b82525050565b6000610f7c82610ee0565b9150819050919050565b6000602082019050610f9b6000830184610d23565b92915050565b60006020820190508181036000830152610fbb8184610d32565b905092915050565b60006020820190508181036000830152610fdd8184610d90565b905092915050565b60006020820190508181036000830152610fff8184610e3e565b905092915050565b600060408201905081810360008301526110218185610e3e565b90506110306020830184610d23565b9392505050565b600060608201905081810360008301526110518186610e3e565b90506110606020830185610d23565b81810360408301526110728184610e3e565b9050949350505050565b600060408201905081810360008301526110968185610e3e565b90506110a56020830184610f62565b9392505050565b600060208201905081810360008301526110c581610e77565b9050919050565b600060208201905081810360008301526110e581610e9a565b9050919050565b6000602082019050818103600083015261110581610ebd565b9050919050565b60006020820190506111216000830184610f62565b92915050565b600060408201905061113c6000830185610f62565b818103602083015261114e8184610e3e565b90509392505050565b6000611161611172565b905061116d828261135d565b919050565b6000604051905090565b600067ffffffffffffffff82111561119757611196611495565b5b6111a0826114c4565b9050602081019050919050565b6000819050602082019050919050565b6000819050602082019050919050565b600081519050919050565b600081519050919050565b600081519050919050565b6000602082019050919050565b6000602082019050919050565b600082825260208201905092915050565b600082825260208201905092915050565b600081905092915050565b600082825260208201905092915050565b600082825260208201905092915050565b6000611262826112df565b915061126d836112df565b9250827fffffffffffffffffffffffffffffffffffffffffffffffffffffffffffffffff038211156112a2576112a1611408565b5b828201905092915050565b60006112b8826112bf565b9050919050565b600073ffffffffffffffffffffffffffffffffffffffff82169050919050565b6000819050919050565b82818337600083830152505050565b60005b838110156113165780820151818401526020810190506112fb565b83811115611325576000848401525b50505050565b6000600282049050600182168061134357607f821691505b6020821081141561135757611356611466565b5b50919050565b611366826114c4565b810181811067ffffffffffffffff8211171561138557611384611495565b5b80604052505050565b6000611399826112df565b91507fffffffffffffffffffffffffffffffffffffffffffffffffffffffffffffffff8214156113cc576113cb611408565b5b600182019050919050565b60006113e2826112df565b91506113ed836112df565b9250826113fd576113fc611437565b5b828206905092915050565b7f4e487b7100000000000000000000000000000000000000000000000000000000600052601160045260246000fd5b7f4e487b7100000000000000000000000000000000000000000000000000000000600052601260045260246000fd5b7f4e487b7100000000000000000000000000000000000000000000000000000000600052602260045260246000fd5b7f4e487b7100000000000000000000000000000000000000000000000000000000600052604160045260246000fd5b6000601f19601f8301169050919050565b7f576169742031206d696e75746500000000000000000000000000000000000000600082015250565b7f547279696e6720746f207769746864726177206d6f7265206d6f6e657920746860008201527f616e2074686520636f6e7472616374206861732e000000000000000000000000602082015250565b7f4661696c656420746f207769746864726177206d6f6e65792066726f6d20636f60008201527f6e74726163742e00000000000000000000000000000000000000000000000000602082015250565b50565b6115a8816112ad565b81146115b357600080fd5b5056fea264697066735822122086d27debb2eb3112e767a27c430597c729d1a564cef0a353687fdef167c5118964736f6c63430008040033",
  "linkReferences": {},
  "deployedLinkReferences": {}
}