{
  "_format": "hh-sol-artifact-1",
  "contractName": "WavePortal",
  "sourceName": "contracts/WavePortal.sol",
  "abi": [
    {
      "inputs": [],
      "stateMutability": "payable",
      "type": "constructor"
    },
    {
      "anonymous": false,
      "inputs": [
        {
          "indexed": true,
          "internalType": "address",
          "name": "from",
          "type": "address"
        },
        {
          "indexed": false,
          "internalType": "uint256",
          "name": "timestamp",
          "type": "uint256"
        },
        {
          "indexed": false,
          "internalType": "string",
          "name": "message",
          "type": "string"
        }
      ],
      "name": "NewWave",
      "type": "event"
    },
    {
      "inputs": [],
      "name": "getAllWaves",
      "outputs": [
        {
          "components": [
            {
              "internalType": "address",
              "name": "waver",
              "type": "address"
            },
            {
              "internalType": "string",
              "name": "message",
              "type": "string"
            },
            {
              "internalType": "uint256",
              "name": "timestamp",
              "type": "uint256"
            }
          ],
          "internalType": "struct WavePortal.Wave[]",
          "name": "",
          "type": "tuple[]"
        }
      ],
      "stateMutability": "view",
      "type": "function"
    },
    {
      "inputs": [],
      "name": "getTotalWavers",
      "outputs": [
        {
          "internalType": "address[]",
          "name": "",
          "type": "address[]"
        }
      ],
      "stateMutability": "view",
      "type": "function"
    },
    {
      "inputs": [],
      "name": "getTotalWaves",
      "outputs": [
        {
          "internalType": "uint256",
          "name": "",
          "type": "uint256"
        }
      ],
      "stateMutability": "view",
      "type": "function"
    },
    {
      "inputs": [
        {
          "internalType": "string",
          "name": "_message",
          "type": "string"
        }
      ],
      "name": "wave",
      "outputs": [],
      "stateMutability": "nonpayable",
      "type": "function"
    }
  ],
  "bytecode": "0x60806040526200004f6040518060400160405280601e81526020017f49276d206120736d61727420636f6e74726163742e20504f474348414d5000008152506200005560201b620006511760201c565b620001e9565b620000f5816040516024016200006c919062000162565b6040516020818303038152906040527f41304fac000000000000000000000000000000000000000000000000000000007bffffffffffffffffffffffffffffffffffffffffffffffffffffffff19166020820180517bffffffffffffffffffffffffffffffffffffffffffffffffffffffff8381831617835250505050620000f860201b60201c565b50565b60008151905060006a636f6e736f6c652e6c6f679050602083016000808483855afa5050505050565b60006200012e8262000186565b6200013a818562000191565b93506200014c818560208601620001a2565b6200015781620001d8565b840191505092915050565b600060208201905081810360008301526200017e818462000121565b905092915050565b600081519050919050565b600082825260208201905092915050565b60005b83811015620001c2578082015181840152602081019050620001a5565b83811115620001d2576000848401525b50505050565b6000601f19601f8301169050919050565b61110280620001f96000396000f3fe608060405234801561001057600080fd5b506004361061004c5760003560e01c8063449d46c0146100515780639a2cdc081461006d578063a126adab1461008b578063bd43a908146100a9575b600080fd5b61006b60048036038101906100669190610956565b6100c7565b005b61007561039a565b6040516100829190610d18565b60405180910390f35b6100936103a3565b6040516100a09190610c2d565b60405180910390f35b6100b1610500565b6040516100be9190610c4f565b60405180910390f35b60008081546100d590610f44565b919050819055506001339080600181540180825580915050600190039060005260206000200160009091909190916101000a81548173ffffffffffffffffffffffffffffffffffffffff021916908373ffffffffffffffffffffffffffffffffffffffff16021790555061017f6040518060400160405280601681526020017f257320776176656420772f206d6573736167652026730000000000000000000081525033836106ea565b600260405180606001604052803373ffffffffffffffffffffffffffffffffffffffff16815260200183815260200142815250908060018154018082558091505060019003906000526020600020906003020160009091909190915060008201518160000160006101000a81548173ffffffffffffffffffffffffffffffffffffffff021916908373ffffffffffffffffffffffffffffffffffffffff160217905550602082015181600101908051906020019061023e92919061084b565b506040820151816002015550503373ffffffffffffffffffffffffffffffffffffffff167f5f7e16dc676677766a70e9c5628aa6c54ddb8b6e5188e2ae1e1f17f1ffbea7164283604051610293929190610d33565b60405180910390a26000655af3107a40009050478111156102e9576040517f08c379a00000000000000000000000000000000000000000000000000000000081526004016102e090610cd8565b60405180910390fd5b60003373ffffffffffffffffffffffffffffffffffffffff168260405161030f90610bfd565b60006040518083038185875af1925050503d806000811461034c576040519150601f19603f3d011682016040523d82523d6000602084013e610351565b606091505b5050905080610395576040517f08c379a000000000000000000000000000000000000000000000000000000000815260040161038c90610cf8565b60405180910390fd5b505050565b60008054905090565b60606103e36040518060400160405280600b81526020017f416c6c207761766572733a000000000000000000000000000000000000000000815250610651565b60005b6001805490508110156104735761046060018281548110610430577f4e487b7100000000000000000000000000000000000000000000000000000000600052603260045260246000fd5b9060005260206000200160009054906101000a900473ffffffffffffffffffffffffffffffffffffffff16610789565b808061046b90610f44565b9150506103e6565b5060018054806020026020016040519081016040528092919081815260200182805480156104f657602002820191906000526020600020905b8160009054906101000a900473ffffffffffffffffffffffffffffffffffffffff1673ffffffffffffffffffffffffffffffffffffffff16815260200190600101908083116104ac575b5050505050905090565b60606002805480602002602001604051908101604052809291908181526020016000905b8282101561064857838290600052602060002090600302016040518060600160405290816000820160009054906101000a900473ffffffffffffffffffffffffffffffffffffffff1673ffffffffffffffffffffffffffffffffffffffff1673ffffffffffffffffffffffffffffffffffffffff1681526020016001820180546105ad90610ee1565b80601f01602080910402602001604051908101604052809291908181526020018280546105d990610ee1565b80156106265780601f106105fb57610100808354040283529160200191610626565b820191906000526020600020905b81548152906001019060200180831161060957829003601f168201915b5050505050815260200160028201548152505081526020019060010190610524565b50505050905090565b6106e7816040516024016106659190610c71565b6040516020818303038152906040527f41304fac000000000000000000000000000000000000000000000000000000007bffffffffffffffffffffffffffffffffffffffffffffffffffffffff19166020820180517bffffffffffffffffffffffffffffffffffffffffffffffffffffffff8381831617835250505050610822565b50565b61078483838360405160240161070293929190610c93565b6040516020818303038152906040527fe0e9ad4f000000000000000000000000000000000000000000000000000000007bffffffffffffffffffffffffffffffffffffffffffffffffffffffff19166020820180517bffffffffffffffffffffffffffffffffffffffffffffffffffffffff8381831617835250505050610822565b505050565b61081f8160405160240161079d9190610c12565b6040516020818303038152906040527f2c2ecbc2000000000000000000000000000000000000000000000000000000007bffffffffffffffffffffffffffffffffffffffffffffffffffffffff19166020820180517bffffffffffffffffffffffffffffffffffffffffffffffffffffffff8381831617835250505050610822565b50565b60008151905060006a636f6e736f6c652e6c6f679050602083016000808483855afa5050505050565b82805461085790610ee1565b90600052602060002090601f01602090048101928261087957600085556108c0565b82601f1061089257805160ff19168380011785556108c0565b828001600101855582156108c0579182015b828111156108bf5782518255916020019190600101906108a4565b5b5090506108cd91906108d1565b5090565b5b808211156108ea5760008160009055506001016108d2565b5090565b60006109016108fc84610d88565b610d63565b90508281526020810184848401111561091957600080fd5b610924848285610e9f565b509392505050565b600082601f83011261093d57600080fd5b813561094d8482602086016108ee565b91505092915050565b60006020828403121561096857600080fd5b600082013567ffffffffffffffff81111561098257600080fd5b61098e8482850161092c565b91505092915050565b60006109a383836109c3565b60208301905092915050565b60006109bb8383610b8f565b905092915050565b6109cc81610e63565b82525050565b6109db81610e63565b82525050565b60006109ec82610dd9565b6109f68185610e14565b9350610a0183610db9565b8060005b83811015610a32578151610a198882610997565b9750610a2483610dfa565b925050600181019050610a05565b5085935050505092915050565b6000610a4a82610de4565b610a548185610e25565b935083602082028501610a6685610dc9565b8060005b85811015610aa25784840389528151610a8385826109af565b9450610a8e83610e07565b925060208a01995050600181019050610a6a565b50829750879550505050505092915050565b6000610abf82610def565b610ac98185610e41565b9350610ad9818560208601610eae565b610ae28161101a565b840191505092915050565b6000610af882610def565b610b028185610e52565b9350610b12818560208601610eae565b610b1b8161101a565b840191505092915050565b6000610b33603483610e52565b9150610b3e8261102b565b604082019050919050565b6000610b56602783610e52565b9150610b618261107a565b604082019050919050565b6000610b79600083610e36565b9150610b84826110c9565b600082019050919050565b6000606083016000830151610ba760008601826109c3565b5060208301518482036020860152610bbf8282610ab4565b9150506040830151610bd46040860182610bdf565b508091505092915050565b610be881610e95565b82525050565b610bf781610e95565b82525050565b6000610c0882610b6c565b9150819050919050565b6000602082019050610c2760008301846109d2565b92915050565b60006020820190508181036000830152610c4781846109e1565b905092915050565b60006020820190508181036000830152610c698184610a3f565b905092915050565b60006020820190508181036000830152610c8b8184610aed565b905092915050565b60006060820190508181036000830152610cad8186610aed565b9050610cbc60208301856109d2565b8181036040830152610cce8184610aed565b9050949350505050565b60006020820190508181036000830152610cf181610b26565b9050919050565b60006020820190508181036000830152610d1181610b49565b9050919050565b6000602082019050610d2d6000830184610bee565b92915050565b6000604082019050610d486000830185610bee565b8181036020830152610d5a8184610aed565b90509392505050565b6000610d6d610d7e565b9050610d798282610f13565b919050565b6000604051905090565b600067ffffffffffffffff821115610da357610da2610feb565b5b610dac8261101a565b9050602081019050919050565b6000819050602082019050919050565b6000819050602082019050919050565b600081519050919050565b600081519050919050565b600081519050919050565b6000602082019050919050565b6000602082019050919050565b600082825260208201905092915050565b600082825260208201905092915050565b600081905092915050565b600082825260208201905092915050565b600082825260208201905092915050565b6000610e6e82610e75565b9050919050565b600073ffffffffffffffffffffffffffffffffffffffff82169050919050565b6000819050919050565b82818337600083830152505050565b60005b83811015610ecc578082015181840152602081019050610eb1565b83811115610edb576000848401525b50505050565b60006002820490506001821680610ef957607f821691505b60208210811415610f0d57610f0c610fbc565b5b50919050565b610f1c8261101a565b810181811067ffffffffffffffff82111715610f3b57610f3a610feb565b5b80604052505050565b6000610f4f82610e95565b91507fffffffffffffffffffffffffffffffffffffffffffffffffffffffffffffffff821415610f8257610f81610f8d565b5b600182019050919050565b7f4e487b7100000000000000000000000000000000000000000000000000000000600052601160045260246000fd5b7f4e487b7100000000000000000000000000000000000000000000000000000000600052602260045260246000fd5b7f4e487b7100000000000000000000000000000000000000000000000000000000600052604160045260246000fd5b6000601f19601f8301169050919050565b7f547279696e6720746f207769746864726177206d6f7265206d6f6e657920746860008201527f616e2074686520636f6e7472616374206861732e000000000000000000000000602082015250565b7f4661696c656420746f207769746864726177206d6f6e65792066726f6d20636f60008201527f6e74726163742e00000000000000000000000000000000000000000000000000602082015250565b5056fea26469706673582212206e81018a0ad3c504c0895176920671a5b31c0d54d445cbb0c0fab77bbecc63a764736f6c63430008040033",
  "linkReferences": {},
  "deployedLinkReferences": {}
}