{
    "_format": "hh-sol-artifact-1",
    "contractName": "WavePortal",
    "sourceName": "contracts/WavePortal.sol",
    "abi": [
        {
            "inputs": [],
            "stateMutability": "nonpayable",
            "type": "constructor"
        },
        {
            "inputs": [],
            "name": "getTotalWavers",
            "outputs": [
                {
                    "internalType": "address[]",
                    "name": "",
                    "type": "address[]"
                }
            ],
            "stateMutability": "view",
            "type": "function"
        },
        {
            "inputs": [],
            "name": "getTotalWaves",
            "outputs": [
                {
                    "internalType": "uint256",
                    "name": "",
                    "type": "uint256"
                }
            ],
            "stateMutability": "view",
            "type": "function"
        },
        {
            "inputs": [],
            "name": "wave",
            "outputs": [],
            "stateMutability": "nonpayable",
            "type": "function"
        }
    ],
    "bytecode": "0x608060405234801561001057600080fd5b506100596040518060400160405280601881526020017f596f6f2049276d206120736d61727420636f6e7472616374000000000000000081525061005e60201b6102ef1760201c565b6101e1565b6100fa81604051602401610072919061015f565b6040516020818303038152906040527f41304fac000000000000000000000000000000000000000000000000000000007bffffffffffffffffffffffffffffffffffffffffffffffffffffffff19166020820180517bffffffffffffffffffffffffffffffffffffffffffffffffffffffff83818316178352505050506100fd60201b60201c565b50565b60008151905060006a636f6e736f6c652e6c6f679050602083016000808483855afa5050505050565b600061013182610181565b61013b818561018c565b935061014b81856020860161019d565b610154816101d0565b840191505092915050565b600060208201905081810360008301526101798184610126565b905092915050565b600081519050919050565b600082825260208201905092915050565b60005b838110156101bb5780820151818401526020810190506101a0565b838111156101ca576000848401525b50505050565b6000601f19601f8301169050919050565b6108bb806101f06000396000f3fe608060405234801561001057600080fd5b50600436106100415760003560e01c80636fe15b44146100465780639a2cdc0814610050578063a126adab1461006e575b600080fd5b61004e61008c565b005b610058610147565b604051610065919061071d565b60405180910390f35b610076610192565b6040516100839190610679565b60405180910390f35b60008081548092919061009e906107fc565b91905055506001339080600181540180825580915050600190039060005260206000200160009091909190916101000a81548173ffffffffffffffffffffffffffffffffffffffff021916908373ffffffffffffffffffffffffffffffffffffffff1602179055506101456040518060400160405280600d81526020017f257320686173207761766564210000000000000000000000000000000000000081525033610388565b565b600061018a6040518060400160405280601781526020017f5765206861766520256420746f74616c20776176657321000000000000000000815250600054610424565b600054905090565b60606101d26040518060400160405280600b81526020017f416c6c207761766572733a0000000000000000000000000000000000000000008152506102ef565b60005b6001805490508110156102625761024f6001828154811061021f577f4e487b7100000000000000000000000000000000000000000000000000000000600052603260045260246000fd5b9060005260206000200160009054906101000a900473ffffffffffffffffffffffffffffffffffffffff166104c0565b808061025a906107fc565b9150506101d5565b5060018054806020026020016040519081016040528092919081815260200182805480156102e557602002820191906000526020600020905b8160009054906101000a900473ffffffffffffffffffffffffffffffffffffffff1673ffffffffffffffffffffffffffffffffffffffff168152602001906001019080831161029b575b5050505050905090565b61038581604051602401610303919061069b565b6040516020818303038152906040527f41304fac000000000000000000000000000000000000000000000000000000007bffffffffffffffffffffffffffffffffffffffffffffffffffffffff19166020820180517bffffffffffffffffffffffffffffffffffffffffffffffffffffffff8381831617835250505050610559565b50565b610420828260405160240161039e9291906106bd565b6040516020818303038152906040527f319af333000000000000000000000000000000000000000000000000000000007bffffffffffffffffffffffffffffffffffffffffffffffffffffffff19166020820180517bffffffffffffffffffffffffffffffffffffffffffffffffffffffff8381831617835250505050610559565b5050565b6104bc828260405160240161043a9291906106ed565b6040516020818303038152906040527f9710a9d0000000000000000000000000000000000000000000000000000000007bffffffffffffffffffffffffffffffffffffffffffffffffffffffff19166020820180517bffffffffffffffffffffffffffffffffffffffffffffffffffffffff8381831617835250505050610559565b5050565b610556816040516024016104d4919061065e565b6040516020818303038152906040527f2c2ecbc2000000000000000000000000000000000000000000000000000000007bffffffffffffffffffffffffffffffffffffffffffffffffffffffff19166020820180517bffffffffffffffffffffffffffffffffffffffffffffffffffffffff8381831617835250505050610559565b50565b60008151905060006a636f6e736f6c652e6c6f679050602083016000808483855afa5050505050565b600061058e838361059a565b60208301905092915050565b6105a38161078d565b82525050565b6105b28161078d565b82525050565b60006105c382610748565b6105cd818561076b565b93506105d883610738565b8060005b838110156106095781516105f08882610582565b97506105fb8361075e565b9250506001810190506105dc565b5085935050505092915050565b600061062182610753565b61062b818561077c565b935061063b8185602086016107c9565b61064481610874565b840191505092915050565b610658816107bf565b82525050565b600060208201905061067360008301846105a9565b92915050565b6000602082019050818103600083015261069381846105b8565b905092915050565b600060208201905081810360008301526106b58184610616565b905092915050565b600060408201905081810360008301526106d78185610616565b90506106e660208301846105a9565b9392505050565b600060408201905081810360008301526107078185610616565b9050610716602083018461064f565b9392505050565b6000602082019050610732600083018461064f565b92915050565b6000819050602082019050919050565b600081519050919050565b600081519050919050565b6000602082019050919050565b600082825260208201905092915050565b600082825260208201905092915050565b60006107988261079f565b9050919050565b600073ffffffffffffffffffffffffffffffffffffffff82169050919050565b6000819050919050565b60005b838110156107e75780820151818401526020810190506107cc565b838111156107f6576000848401525b50505050565b6000610807826107bf565b91507fffffffffffffffffffffffffffffffffffffffffffffffffffffffffffffffff82141561083a57610839610845565b5b600182019050919050565b7f4e487b7100000000000000000000000000000000000000000000000000000000600052601160045260246000fd5b6000601f19601f830116905091905056fea2646970667358221220e98823d5d9c684154497cedfb1d57a24151a0f5bcc90a4febc92887726f54da364736f6c63430008040033",
    "linkReferences": {},
    "deployedLinkReferences": {}
}